:020000040800F2
:10000000A0090020D90100087D080008390800086F
:1000100079080008450500084F120008000000009C
:10002000000000000000000000000000510D00086A
:100030004905000800000000390C0008650E0008A2
:10004000F3010008F3010008F3010008F3010008C0
:10005000F3010008F30100084D050008F301000852
:10006000F3010008F3010008F3010008F3010008A0
:10007000F3010008F3010008F3010008F301000890
:10008000F3010008F3010008F3010008F301000880
:10009000F3010008F3010008F3010008F301000870
:1000A000F3010008F3010008F3010008F301000860
:1000B000F3010008C90E0008F3010008F30100086D
:1000C000F3010008F3010008F3010008F301000840
:1000D000F30100083D100008F3010008F3010008D7
:1000E000F3010008F3010008F301000800F002F832
:1000F00000F062F80AA090E8000C82448344AAF160
:100100000107DA4501D100F057F8AFF2090EBAE85D
:100110000F0013F0010F18BFFB1A43F0010318473B
:10012000581C0000781C00000A444FF0000C10F826
:10013000013B13F0070408BF10F8014B1D1108BF65
:1001400010F8015B641E05D010F8016B641E01F805
:10015000016BF9D113F0080F1EBF10F8014BAD1C55
:100160000C1B09D16D1E58BF01F801CBFAD505E073
:1001700014F8016B01F8016B6D1EF9D59142D6D3CD
:10018000704700000023002400250026103A28BFF5
:1001900078C1FBD8520728BF30C148BF0B607047F9
:1001A000642900F0B980732900F07F810020704736
:1001B0001FB51FBD10B510BD00F092F91146FFF735
:1001C000F7FF01F0EFF800F0B0F903B4FFF7F2FF2A
:1001D00003BC01F03EF80000094880470948004789
:1001E000FEE7FEE7FEE7FEE7FEE7FEE7FEE7FEE7E7
:1001F000FEE7FEE704480549054A064B7047000044
:10020000690E0008ED000008A0030020A0090020EE
:10021000A0050020A0050020704700000FB404498D
:1002200010B503AA029800F045F910BC5DF814FB64
:10023000280000200FB41CB5074B06AA7B44694672
:100240000090059800F007F90020694600F016F9C3
:100250001CBC5DF814FB00003D0200002DE9F041DC
:100260000E460446002020622046E168884730B3ED
:10027000252805D0D4E901219047206A401CF2E7E7
:10028000E168204600278847050018D0A5F1410005
:10029000192802D820354FF40067324629462046F7
:1002A0002760FFF77DFF40B1012804D0F61D26F03E
:1002B00007060836D8E7361DD6E72846DAE7206A6B
:1002C000BDE8F08170B50C460546012A05D02878B6
:1002D000800600D5EA69002302E0012305E05B1CEB
:1002E000934202D2E05C0028F9D1A869E618C01A4E
:1002F000A861286A184428622846AFF3008004E009
:10030000D5E9012114F8010B9047B442F8D32846EF
:10031000AFF3008070BD00002DE9F04106460024D7
:1003200010687529314616A510D0AFF3008000285B
:1003300002DA404213A507E031688A0701D512A509
:1003400002E0490704D511A5012401E0AFF30080C4
:1003500000210A2206F1240709E0B0FBF2FCB0FB01
:10036000F2F302FB1C00303078541846491C002878
:10037000F3D123462A463046BDE8F04100F00CB8E0
:10038000000000002D0000002B00000020000000F5
:1003900070477047704770472DE9F0470D46994602
:1003A0009246044600F124080168880604D5E069F5
:1003B00021F01001216000E00120A84201DD471B6F
:1003C00000E00027A1697A1902EB0900081AA06170
:1003D0002078C00602D42046AFF30080002608E053
:1003E000D4E901211AF806009047206A401C761CC7
:1003F00020624E45F4DB2078C0060AD52046AFF3D4
:10040000008006E0D4E9012130209047206A401C9A
:100410002062381EA7F10107F4DC07E0D4E90121CE
:1004200018F805009047206A401C2062281EA5F19C
:100430000105F3DC2046AFF300802078000602D5EA
:100440000220BDE8F0870120FBE7000001694A1C9B
:1004500002610878704700B58FB0CDE90131002105
:10046000059105497944CDE9031011466846FFF727
:10047000F5FE0FB000BD0000E5FFFFFF0A6802F8BF
:10048000010B0A60704710B5436913B1AFF30080E8
:1004900001E0FFF717FF012010BD127800F12401E1
:1004A0000A7000224A700122EDE711684FF0FF3216
:1004B000E9E70000074B70B50D467B44FFF7CBFF23
:1004C0000446284600F008F810B14FF0FF3070BD28
:1004D000204670BD530E0000007B00F08000704786
:1004E000754600F02BF8AE4605006946534620F0ED
:1004F0000700854618B020B5FFF77CFEBDE8204018
:100500004FF000064FF000074FF000084FF0000BCF
:1005100021F00701AC46ACE8C009ACE8C009ACE882
:10052000C009ACE8C0098D46704710B50446AFF36A
:1005300000802046BDE81040FFF747BE00487047E6
:100540003C03002000BFFEE77047000010B50A2002
:1005500000F0A4FE0121064800F058F9012802D15C
:1005600004A0FFF75BFE012000F00CF810BD0000B6
:10057000000801406B65792C696E74727275707435
:100580000A0000000149086070470000140401409F
:10059000002123498279002A3AD00A46126803686A
:1005A0009A430B461A600A1D126803689A430B1D92
:1005B0001A60027911440A6803681A430A60184AEB
:1005C0000832126803689A43154B08331A601A1DE3
:1005D000126803689A43124B0C331A604279102A4E
:1005E0000ED11A1F126803681A430D4B08331A60A4
:1005F0001A1D126803681A43094B0C331A600DE088
:100600000749427911440A6803681A430A6005E001
:10061000027911440A6803689A430A60704700002F
:100620000004014030B500228B071C0F0F2303FA92
:1006300004F20B4B8C1053F824309343084C8D106C
:1006400044F8253023468C1053F824308C07240FAF
:1006500000FA04F42343024C8D1044F8253030BDD9
:10066000080001402DE9F041024600250026002047
:1006700000230024002791F803C00CF00F0591F827
:1006800003C00CF0100CBCF1000F03D091F802C0B5
:100690004CEA050591F800C0BCF1000F31D0146898
:1006A00000202BE04FF0010C0CFA00F3B1F800C071
:1006B0000CEA03069E4220D183004FF00F0C0CFA87
:1006C00003F7BC4305FA03FC4CEA040491F803C0A9
:1006D000BCF1280F06D14FF0010C0CFA00FCC2F857
:1006E00014C00AE091F803C0BCF1480F05D14FF0E7
:1006F000010C0CFA00FCC2F810C0401C0828D1D331
:100700001460B1F800C0BCF1FF0F34DD5468002064
:100710002EE000F1080C4FF0010808FA0CF3B1F8D4
:1007200000C00CEA03069E4221D183004FF00F0C5B
:100730000CFA03F7BC4305FA03FC4CEA040491F8F5
:1007400003C0BCF1280F05D100F1080C08FA0CF821
:10075000C2F8148091F803C0BCF1480F07D100F132
:10076000080C4FF0010808FA0CF8C2F81080401C81
:100770000828CED35460BDE8F0810000F0B50A46E9
:10078000002300240021002500F00046B6F1004FB0
:1007900002D11D4EF16901E01B4E7168C0F30345A3
:1007A00083B200F44016B6F5401F08D121F0706105
:1007B000154E766826F07066134F7E6012E000F4E6
:1007C0008016B6F5801F06D1032606FA05F4A1436C
:1007D00041F0706106E0460D360103FA06F6B143BA
:1007E00041F0706122B1460D360103FA06F631433D
:1007F00000F00046B6F1004F02D1034EF16101E076
:10080000014E7160F0BD0000000001400246002072
:1008100093680B400BB1012000E0002070470246B6
:100820000020D3680B400BB1012000E0002070478E
:10083000416170470161704700BFFEE708B50121C3
:10084000082000F00BFA1020ADF800008DF803002E
:1008500002208DF8020069460548FFF703FF0121D9
:10086000084600F0FBF901210248FFF787FF08BDA9
:10087000000C01400001300000BFFEE7704700009F
:1008800070B5002100230F22C47804B3154C2468EE
:1008900004F4E064C4F5E064210AC1F10403CA4031
:1008A000447804FA03F184781440214309010E4C82
:1008B0000678A155047804F01F050124AC400578A2
:1008C0006D11AD0005F1E025C5F8004109E004789F
:1008D00004F01F050124AC40044D0678761145F85C
:1008E000264070BD0CED00E000E400E080E100E097
:1008F00002490143024A1160704700000000FA05F6
:100900000CED00E070B5002419E004F1B001C8B2AC
:10091000002100F04FF90021084600F04BF90021BA
:10092000102000F047F9002505E00121002000F02B
:1009300041F9681CC5B2802DF7DB601CC4B2082CDD
:10094000E3DB70BD08B50121082000F087F94FF402
:100950004C50ADF8000010208DF8030003208DF8F6
:10096000020069464248FFF77DFE4FF44C51404873
:10097000FFF760FF642000F091FC0021AE2000F042
:1009800019F90021084600F015F90021102000F0A7
:1009900011F90021402000F00DF90021812000F024
:1009A00009F90021CF2000F005F90021A12000F075
:1009B00001F90021C82000F0FDF80021A62000F078
:1009C000F9F80021A82000F0F5F800213F2000F000
:1009D000F1F80021D32000F0EDF80021084600F0E6
:1009E000E9F80021D52000F0E5F80021F02000F022
:1009F000E1F80021D92000F0DDF80021F12000F01D
:100A0000D9F80021DA2000F0D5F80021122000F0FA
:100A1000D1F80021DB2000F0CDF80021402000F0CB
:100A2000C9F80021202000F0C5F80021022000F0C4
:100A3000C1F800218D2000F0BDF80021142000F045
:100A4000B9F80021A42000F0B5F80021A62000F09C
:100A5000B1F80021AF2000F0ADF80021AF2000F088
:100A6000A9F8FFF74FFF0021084600F003F808BD82
:100A7000000C014070B504460D4605F1B001C8B246
:100A8000002100F097F8102141EA1410002100F035
:100A900091F804F00F0141F00100002100F08AF804
:100AA00070BD00002DE9F04180460E461546002736
:100AB00031464046FFF7DEFF00240AE0124A02EB0F
:100AC0008511085D012100F075F8781CC7B2601C23
:100AD000C4B2102CF2DB701CC1B24046FFF7CAFF53
:100AE00000240CE06900491C074A02EB4111085D33
:100AF000012100F05FF8781CC7B2601CC4B2102C52
:100B0000F0DBBDE8F0810000320000202DE9F0416B
:100B100007460E46904600250024A8F12000C5B2E5
:100B20007F2F02DD0027B01CC6B231463846FFF7E2
:100B3000A1FF002408E004EB05110F4A505C0121DD
:100B400000F038F8601CC4B2082CF4DB701CC1B291
:100B50003846FFF78FFF002409E004EB0511083148
:100B6000054A505C012100F025F8601CC4B2082C35
:100B7000F3DBBDE8F0810000881700082DE9F041A3
:100B800004460F46154600260EE0AA5D394620466B
:100B9000FFF7BCFF04F10800C4B2782C02DD00248A
:100BA000B81CC7B2701CC6B2A85D0028EDD1BDE864
:100BB000F081000070B504460E462EB14FF480510E
:100BC0001C48FFF737FE04E04FF480511948FFF747
:100BD0002FFE4FF400511748FFF72AFE00251BE0B7
:100BE0004FF480711348FFF723FE04F0800028B112
:100BF0004FF400710F48FFF71DFE04E04FF4007141
:100C00000C48FFF715FE4FF480710A48FFF712FEFB
:100C10006006040E681CC5B2082DE1DB4FF40051DC
:100C20000448FFF707FE4FF480510248FFF702FE29
:100C300070BD0000000C01407047000029B1064A59
:100C4000D2690243044BDA6104E0034AD269824369
:100C5000014BDA61704700000010024029B1064ADA
:100C600092690243044B9A6104E0034A9269824309
:100C7000014B9A61704700000010024030B500211E
:100C80000022002400232D4D6D6805F00C0121B1D8
:100C9000042905D0082923D105E0294D056022E06B
:100CA000274D05601FE0254D6D6805F47012234D3A
:100CB0006D6805F48034022505EB92421CB9214D84
:100CC000554305600BE01D4D6D6805F400351DB101
:100CD0001C4D5543056002E0194D5543056002E087
:100CE000174D056000BF00BF144D6D6805F0F001A1
:100CF0000909154D6B5C0568DD4045600F4D6D6859
:100D000005F4E061090A104D6B5C4568DD408560C3
:100D10000A4D6D6805F46051C90A0B4D6B5C45685E
:100D2000DD40C560054D6D6805F44041890B074DF8
:100D30006B5CC568B5FBF3F5056130BD0010024082
:100D400000127A0000093D00140000202400002059
:100D5000704710B500F002F810BD00000CB500207F
:100D6000019000903348006840F4803031490860B9
:100D700000BF3048006800F4003000900198401C2B
:100D80000190009818B90198B0F5A06FF1D12948E9
:100D9000006800F4003010B10120009001E0002054
:100DA00000900098012843D12348006840F01000CB
:100DB000214908600846006820F0030008600846E2
:100DC000006840F0020008601A484068194948600D
:100DD0000846406848600846406840F480604860C3
:100DE0000846406820F47C1048600846406840F49B
:100DF000E81048600846006840F08070086000BF56
:100E00000C48006800F000700028F9D009484068DC
:100E100020F00300074948600846406840F002009F
:100E2000486000BF0348406800F00C000828F9D172
:100E30000CBD00000010024000200240042808D130
:100E40004FF0E021096941F004014FF0E022116107
:100E500007E04FF0E021096921F004014FF0E022A2
:100E6000116170477047000010B51348006840F0EA
:100E700001001149086008464068104908400E49C1
:100E80004860084600680E4908400B49086008465B
:100E9000006820F4802008600846406820F4FE00C6
:100EA00048604FF41F008860FFF753FF4FF0006069
:100EB0000449086010BD0000001002400000FFF867
:100EC000FFFFF6FE08ED00E010B50121054800F037
:100ED00048F8012805D10121024800F033F800F05C
:100EE00003FA10BD000400407FB505460C46012101
:100EF0000220FFF7A3FEADF80850ADF80440002033
:100F0000ADF80A00ADF8060001A90D4800F044F85C
:100F1000012211460A4800F035F81D208DF8000026
:100F200003208DF801008DF8020001208DF80300E8
:100F30006846FFF7A5FC0121014800F006F87FBDD7
:100F400000040040CA430282704721B1028842F087
:100F50000102028004E002884FF6FE731A4002800C
:100F6000704730B50246002000230024158A05EAA8
:100F70000103958905EA010413B10CB1012000E0D9
:100F8000002030BD1AB183890B43838102E083893D
:100F90008B43838170470000002202881D4B9842DA
:100FA0000ED01D4B98420BD0B0F1804F08D01B4B98
:100FB000984205D01A4B984202D01A4B984204D15D
:100FC0004FF68F731A404B881A43174B984207D03D
:100FD000164B984204D04FF6FF431A40CB881A4371
:100FE00002808B8883850B8803850A4B98420BD03F
:100FF000094B984208D00E4B984205D00D4B9842B1
:1010000002D00D4B984201D10B7A038601238382D3
:1010100070470000002C01400034014000040040F3
:1010200000080040000C0040001000400014004088
:1010300000400140004401400048014010B540F22A
:101040002551184800F042F8012829D1154800F030
:10105000F9F8C4B21448007870B90D2C03D10120FE
:10106000114908701CE0114801780078401C0F4AB3
:1010700010700F48445413E00B48007801280FD13A
:101080000A2C08D102200849087000210848074AA4
:101090001278815404E00020044908700249087065
:1010A00010BD0000003801402C0000202D00002061
:1010B0007402002021B1828942F40052828104E04E
:1010C00082894DF6FF731A408281704770B50246DF
:1010D000002400230025002040F66A16B14200D10A
:1010E00000BFC1F3421501F01F03012606FA03F306
:1010F000012D02D19689334006E0022D02D1168AD5
:10110000334001E0968A33400C12012606FA04F4BB
:101110001688344013B10CB1012000E0002070BDEE
:10112000F0B50346002400260025002040F66A178B
:10113000B94200D100BF1846C1F3421401F01F06A6
:10114000012707FA06F5012C01D10C3004E0022C2E
:1011500001D1103000E014301AB107682F43076046
:1011600002E00768AF430760F0BD00002DE9F047DB
:1011700086B005460E460024A24600BFA1460027C1
:10118000B08900B100BF2F462C8A4CF6FF70044096
:10119000F08804432C82AC894EF6F3100440B088EA
:1011A00031890843718908430443AC81AC8A4FF606
:1011B000FF400440B0890443AC8201A8FFF75EFD04
:1011C0001F48874202D1DDF810A001E0DDF80CA035
:1011D000A88900F4004040B10AEBCA0000EB0A10F5
:1011E00031684900B0FBF1F807E00AEBCA0000EBF8
:1011F0000A1031688900B0FBF1F86420B8FBF0F008
:1012000004012009642101FB1089A88900F4004031
:1012100040B1322000EBC900B0FBF1F000F0070054
:10122000044308E0322000EB09106421B0FBF1F028
:1012300000F00F0004432C8106B0BDE8F0870000E9
:101240000038014001468888C0F30800704700BF9D
:10125000FEE700BF7047000010B56FF00400FFF715
:10126000EDFD0A4800680A49B0FBF1F00949087031
:101270000846007800EB4001C1EBC0104FF6FF714B
:1012800001EAC0000449088010BD000000000020F1
:1012900000127A002E000020300000200146114A82
:1012A00012884A434FF0E0235A6100229A611A469D
:1012B000126942F001021A6100BF4FF0E02210698A
:1012C00000F001021AB100F48032002AF5D04FF08C
:1012D000E022126922F001024FF0E0231A6100229D
:1012E0009A6170473000002010B510210748FFF7C1
:1012F00096FA012804D110210448FFF799FA03E077
:1013000010210248FFF796FA10BD0000000C0140C2
:1013100000BF054A128802F04002002AF9D0C2B28A
:10132000014B1B1D1A8070470038014008B5012190
:101330000420FFF793FC0120ADF8000028208DF871
:10134000030069460148FFF78DF908BD0008014018
:101350000EB501210846FFF781FCFFF7E7FF0021EA
:101360000846FFF75FF90120019000208DF8080082
:1013700008208DF8090001208DF80A0001A8FFF768
:1013800007F906208DF8000002208DF801000320E7
:101390008DF8020001208DF803006846FFF770FA0F
:1013A0000EBD00009AB000251C24FFF755FF4FF436
:1013B000A060FFF79DFA4FF4165000F07FF8FFF79A
:1013C0003DFAFFF7C5FFFFF7BDFAFFF79BFA41F6BD
:1013D0001F4140F6C310FFF787FD2046052200217C
:1013E000FFF760FB04F112010C46084606220021BB
:1013F000FFF758FB04F112010C46084607220021B2
:10140000FFF750FB04F1120008220021FFF74AFB0E
:1014100018A203210620FFF7B1FB2AE0681CC0B226
:101420000546024617A101A8FEF704FF01AA0621FE
:101430000846FFF7A3FB4FF4FA70FFF72FFF14489D
:101440000078022815D1134913A0FEF7E7FE00200B
:101450000F4908701349087013A203210620FFF7F3
:101460008DFB0C4A03210620FFF788FB0020094969
:101470000870D3E7302E393627204F4C454420548E
:1014800045535400743A25642020202000000000B9
:101490002C000020740200207265633A25730D0A47
:1014A000000000002D0000202020202020202020EF
:1014B00020202020202020202020000010B586B0F1
:1014C0000446012144F20400FFF7C8FB4FF400700A
:1014D000ADF8140003208DF8160018208DF81700C1
:1014E00005A91D48FFF7BEF84FF48060ADF8140061
:1014F00004208DF8170005A91748FFF7B3F8252039
:101500008DF8000000208DF8010003208DF8020006
:1015100001208DF803006846FFF7B2F9019400201E
:10152000ADF80800ADF80A00ADF80C00ADF81000F9
:101530000C20ADF80E0001A90848FFF717FE0122A4
:1015400040F225510548FFF7EBFD01210348FFF765
:10155000B1FD06B010BD0000000801400038014098
:101560000000000000000000002F00000000070045
:10157000070000147F147F1400242A7F2A120062BF
:10158000640813230036495522500000050300006B
:1015900000001C224100000041221C000014083EF3
:1015A00008140008083E0808000000A060000008B9
:1015B000080808080000606000000020100804020D
:1015C000003E5149453E0000427F400000426151CB
:1015D0004946002141454B31001814127F10002765
:1015E00045454539003C4A49493000017109050328
:1015F00000364949493600064949291E0000363659
:1016000000000000563600000008142241000014BB
:101610001414141400004122140800020151090698
:1016200000324959513E007C1211127C007F494919
:101630004936003E41414122007F4141221C007F4A
:1016400049494941007F09090901003E4149497A58
:10165000007F0808087F0000417F410000204041D2
:101660003F01007F08142241007F40404040007F3E
:10167000020C027F007F0408107F003E4141413E82
:10168000007F09090906003E4151215E007F0919CA
:1016900029460046494949310001017F0101003FC7
:1016A0004040403F001F2040201F003F4038403F47
:1016B00000631408146300070870080700615149AB
:1016C000454300007F41410000552A552A5500003E
:1016D00041417F00000402010204004040404040BC
:1016E000000001020400002054545478007F484454
:1016F000443800384444442000384444487F00388B
:101700005454541800087E0901020018A4A4A47CB3
:10171000007F080404780000447D4000004080847D
:101720007D00007F102844000000417F4000007CC5
:1017300004180478007C08040478003844444438D1
:1017400000FC242424180018242418FC007C08041D
:10175000040800485454542000043F444020003CF6
:101760004040207C001C2040201C003C4030403C7D
:10177000004428102844001CA0A0A07C004464540D
:101780004C44141414141414000000000000000051
:101790000000000000000000000000F80000000051
:1017A000000000333000000000100C06100C060092
:1017B000000000000000000040C07840C0784000F9
:1017C000043F04043F040400007088FC083000005B
:1017D000001820FF211E0000F008F000E0180000B3
:1017E00000211C031E211E0000F00888700000006C
:1017F0001E2123241927211010160E0000000000BE
:101800000000000000000000000000E018040200DA
:10181000000000071820400000020418E00000004B
:101820000040201807000000404080F08040400049
:101830000202010F01020200000000F0000000009F
:101840000101011F01010100000000000000000073
:1018500080B07000000000000000000000000000E8
:101860000001010101010101000000000000000071
:10187000003030000000000000000000806018040C
:10188000006018060100000000E010080810E000E9
:10189000000F102020100F00001010F800000000B2
:1018A0000020203F202000000070080808887000F9
:1018B0000030282422213000003008888848300079
:1018C0000018202020110E000000C02010F8000099
:1018D00000070424243F240000F808888808080032
:1018E0000019212020110E0000E010888818000047
:1018F000000F112020110E0000380808C838080019
:101900000000003F00000000007088080888700098
:10191000001C222121221C0000E010080810E00019
:101920000000312222110F00000000C0C0000000A2
:1019300000000030300000000000008000000000C7
:1019400000008060000000000000804020100800BF
:101950000001020408102000404040404040400088
:101960000404040404040400000810204080000063
:101970000020100804020100007048080808F00068
:101980000000003036010000C030C828E810E00038
:101990000718272423140B000000C038E0000000C3
:1019A000203C23020227382008F88888887000002D
:1019B000203F202020110E00C03008080808380001
:1019C000071820202010080008F808080810E00078
:1019D000203F202020100F0008F88888E808100019
:1019E000203F20202320180008F88888E8081000ED
:1019F000203F200003000000C03008080838000025
:101A000007182020221E020008F808000008F80825
:101A1000203F210101213F20000808F808080000AC
:101A20000020203F2020000000000808F8080800DF
:101A3000C08080807F00000008F888C02818080057
:101A4000203F20012638200008F808000000000090
:101A5000203F20202020300008F8F800F8F8080087
:101A6000203F003F003F200008F830C00008F80881
:101A7000203F200007183F00E01008080810E00091
:101A80000F10202020100F0008F808080808F000A8
:101A9000203F210101010000E01008080810E000CB
:101AA0000F18242438504F0008F888888888700060
:101AB000203F2000030C3020007088080808380000
:101AC0000038202121221C00180808F808081800F6
:101AD0000000203F2000000008F808000008F80877
:101AE000001F202020201F000878880000C8380828
:101AF000000007380E010000F80800F80008F800A0
:101B0000033C0700073C0300081868808068180839
:101B100020302C03032C30200838C800C8380800B7
:101B20000000203F2000000010080808C838080006
:101B30002038262120201800000000FE02020200AA
:101B40000000007F40404000000C30C0000000005A
:101B5000000000010638C00000020202FE00000082
:101B6000004040407F000000000004020202040028
:101B70000000000000000000000000000000000065
:101B8000808080808080808000020204000000004D
:101B90000000000000000000000080808080000045
:101BA0000019242222223F2008F800808000000033
:101BB000003F112020110E000000008080800000F6
:101BC000000E112020201100000000808088F80005
:101BD000000E112020103F20000080808080000037
:101BE000001F222222221300008080F0888888189B
:101BF0000020203F202000000000808080808000A6
:101C0000006B94949493600008F80080808000003A
:101C1000203F210000203F20008098980000000015
:101C20000020203F20200000000000809898000045
:101C300000C08080807F000008F800008080800065
:101C4000203F24022D302000000808F8000000008A
:101C50000020203F20200000808080808080800045
:101C6000203F20003F20003F8080008080800000D7
:101C7000203F210000203F20000080808080000065
:101C8000001F202020201F00808000808000000096
:101C900080FFA12020110E000000008080808000C5
:101CA000000E112020A0FF808080800080808000B6
:101CB00020203F21200001000000808080808000E3
:101CC0000033242424241900008080E08080000058
:101CD0000000001F202000008080000000808000A5
:101CE000001F202020103F20808080000080808006
:101CF00000010E3008060100808000800080808096
:101D00000F300C030C300F000080800080808000BA
:101D10000020312E0E3120008080800000808080E5
:101D200080818E7018060100008080808080800095
:101D30000021302C2221300000000000807C0202B3
:101D400000000000003F404000000000FF000000D5
:101D500000000000FF0000000002027C8000000084
:101D60000040403F000000000006010102020404A0
:101D70000000000000000000981D00080000002086
:101D80007402000028010008C81E00087402002028
:101D90002C070000840100081184A24A046809018C
:101DA000020304060708090C6910A50204060800CE
:101DB0001110404042465CD8C07F7FC0D0584E468C
:101DC000404020088080C060381F07F8083F7F40EF
:101DD00040407878203A8201000A15E2E2B29A8EF9
:101DE00086828080051740C0FF7F180D407C3CFF35
:101DF000FF1030309FFF78F8010111081010020623
:101E000006FFFF01054663395EC7C17F3F20000F13
:101E100011FEFE92FEFE02101117F6F417131000C9
:101E20001111101F1F08FFFF85C1713D0F0F3D717C
:101E3000C1813808FEFE2262C2F272050312FEFE64
:101E40001808FFFF180E070F1E050B114FCEC617FF
:101E500080FC96E584FC00081208C8494AC80808B6
:101E6000200A807F024C807F80601F05113F404028
:101E7000782C404042013AFE060B1040404017804B
:101E80004020100C03000813030C10204080801B1E
:101E9000F888012AFF050215F81B1F08012A7F2078
:101EA00004119F80F0151060028C000B1184E41C5B
:101EB00005C6BC2424E4042504047E01080912FF9D
:081EC0008241261829468180A9
:04000005080001D915
:00000001FF
